:1000000030C0FECFFDCFFCCFFBCFFACFF9CFF8CF7A
:10001000F7CFF6CFF5CFF4CFF3CFF2CFF1CFF0CFCC
:10002000EFCFEECFEDCF1027E80364000A00010008
:10003000001000011000010000000000000000009E
:1000400080C001002D4E414E00494E460000070081
:100050000400380002006001400001006501420018
:100060000000F894EE27ECBBF1E0FBBFEBBFE5BF6F
:100070008DE0A2E0BB27ED938A95E9F780E094E05C
:10008000A0E6ED930197E9F7EEE4F0E08591959114
:10009000009761F0A591B59105901590BF01F00111
:1000A00005900D920197E1F7FB01F0CFEFE5EDBF71
:1000B000E4E0EEBFC0E6D1E000C02597FFCFFFCF60
:00000001FF
