:0C0000004AC0FECFFDCFFCCFFBCFFACFF3
:10000C00F9CFF8CFF7CFF6CFF5CFF4CFF3CFF2CFC0
:10001C00F1CFF0CFEFCFEECFEDCF1027E803640098
:10002C000A00010000100001100001000000000097
:10003C00000000004765656B5461622E69720048D0
:10004C003A2000543A200045000080C001002D4E9B
:10005C00414E00494E4600000700040038000B00DA
:10006C006001400004006B014B0004006F014F0065
:10007C000200730153000200750153000200770166
:10008C00560001007C0158000000F894EE27ECBBF0
:10009C00F1E0FBBFEBBFE5BF8DE0A2E0BB27ED932A
:1000AC008A95E9F780E094E0A0E6ED930197E9F7F3
:1000BC00E4E6F0E085919591009761F0A591B591FA
:1000CC0005901590BF01F00105900D920197E1F795
:1000DC00FB01F0CFEFE5EDBFE4E0EEBFC0E6D1E011
:1000EC0032C0889A9098A2E141D1909A089588984C
:1000FC00809B07C083E08A95F1F7A394E0E5EA15AD
:10010C00B8F7AA24809902C033D1E0F7AA24809BC7
:10011C0002C02ED1E0F70895E8E05E1688F45394FF
:10012C00809BFECF80E58A95F1F7809B05C0E42D7E
:10013C00EE0FE1604E2E01C0440C8099FECFECCF47
:10014C005524E42D08952597A0E1B7D080D0E0E0A8
:10015C00EA93A0E06FD0A0E6B1E09ED010D1E0E031
:10016C0011D1ABE6B1E098D0E7E00CD1AFE6B1E04D
:10017C0093D005D1B6DFBBDFCFDF7E2ECDDF6E2E69
:10018C00CBDF9E2EC9DF8E2EC7DFBE2EA72DBB2741
:10019C00EE27A60DBE1FEE27A90DBE1FEE27A80D3C
:1001AC00BE1FEB2DF0E0EA17FB0751F0E3E0EAD0BD
:1001BC00A3E7B1E071D0EAE0E5D0A5E7B1E00BC070
:1001CC00E72DE3D0E3E0DED0DE0166D0E92DDDD013
:1001DC00EAE0D8D0DE0160D0D2D0CBCFFFCFAA934B
:1001EC00E881E07111F0949A01C09498E881E07272
:1001FC0011F0939A01C09398E881E07411F0929AEF
:10020C0001C09298E881E07811F0919A01C0919820
:10021C00C2D0959AC0D09598BED078C0AA93A88128
:10022C00DEDFE881E295E883A881D9DF85E88A954D
:10023C00F1F76CC0AA93E881F0E0E958FE4FE08139
:10024C00A981AE0FEBDFD980C88022960895A2E079
:10025C00E5DFA3E08BD0ACE0E1DFA1E0DFDFA3E0E2
:10026C0085D0E0E0CE2EDE2E0895AA93A881AA3088
:10027C0021F0E0917B01DE1648F0E0E0EA93C394B4
:10028C00AC2DD8DFA881AA3009F440C0D394979A3A
:10029C00A881C4DF97983AC0BA93AA931A93A981FC
:1002AC00BA81ED91A983BA831E2FE03019F0A12FEA
:1002BC00DCDFF5CF188123960895AA938C9A8B9A3C
:1002CC008A9A899A8D9A8F9A8E9A959897989698D9
:1002DC00E881E0937B01E058E0937901E881E054F8
:1002EC00E0937A01A4E142D05AD059D058D0A0E280
:1002FC0076DF88EC90E00197F1F7A8E28FDFA4E0BD
:10030C008DDFA5E88BDFA6E089DFA1DF21960895BC
:10031C00BA93AA93A991B991E991F99130962AF4DB
:10032C00E095F09531966DE26D93E89480E197E25B
:10033C000DD088EE93E00AD084E6992707D08AE0A6
:10034C0005D06E2F10D066276C9308956627E8179A
:10035C00F90720F06395E81BF90BC9F7662311F434
:10036C0016F008956894605D6D930895B0E01EC01A
:10037C008BE68A95F1F7A394E2E0EA150895A8EECE
:10038C00B3E014C0EA93A1E055CFF0E0FA93EA93FE
:10039C00DE011296BDCF8DE08A95F1F70895A0E3AA
:1003AC001EDF88EC90E00197F1F70895109639F074
:1003BC0080ED97E00197F1F7A8951197C9F708958B
:00000001FF
